:020000000C945E
:1000020081000C94C9000C94E0000C9400000C9444
:1000120000000C9400000C9400000C9400000C945E
:1000220000000C94F9000C9400000C9400000C9455
:1000320000000C9400000C9400000C9400000C943E
:1000420000000C9400000C9400000C9400000C942E
:1000520000001027E80364000A00010000100001FC
:1000620010000100000000004F2053697374656D99
:1000720061206669636F752073656D20636F6D62C1
:100082007573746976656C2C20706172612072657B
:100092006162617374656365722061706572746513
:1000A200207175616C7175657220626F74E36F21E6
:1000B2000A004174656EE7E36F2120536575206382
:1000C2006F6D62757374ED76656C20656D206EEDF3
:1000D20076656C206372697469636F210A005365E7
:1000E2007520636F6D62757374ED76656C20E9201F
:1000F20064652025642E0A000400040066000000E6
:10010200F894EE27ECBBF1E0FBBFEBBFE5BF8DE05F
:10011200A2E0BB27ED938A95E9F780E098E0A0E69C
:10012200ED930197E9F7EAEFF0E085919591009759
:1001320061F0A591B59105901590BF01F001059070
:100142000D920197E1F7FB01F0CFEFE5EDBFE8E09B
:10015200EEBFC0E6D2E00C942E01A0E0B0E0C7D220
:1001620000240E160F064CF4A0E0B0E0C0D2E95E07
:10017200F340A0E0B0E0CBD208C0A0E0B0E0E0E6FF
:10018200FDE6C5D2EAE6F0E058D2442455240895AB
:10019200EA93FA93B49B08C0909B02C0909801C066
:1001A200909AE1E0F0E02F01B39B08C0919B02C05E
:1001B200919801C0919AE1E0F0E02F0116C0EA9314
:1001C200FA93B19B08C0949B02C0949801C0949A80
:1001D200E1E0F0E02F01B09B08C0969B02C0969828
:1001E20001C0969AE1E0F0E02F01F991E9911895AA
:1001F200EA93FA93EFB7EA93B69B14C0E1E0F0E01A
:100202002F01D89B02C0D89801C0D89A1CD2D89B83
:1002120009C0D89AB69905C0D898E1E0F0E03F014C
:1002220001C0F5CFB79B14C0E1E0F0E02F01D99BEC
:1002320002C0D99801C0D99A06D2D99B09C0D99ACD
:10024200B79905C0D998E1E0F0E03F0101C0F5CFD0
:10025200E991EFBFF991E9911895E3E0EABBE0E09B
:10026200EBBBE7BBE8BBE4BBE0E2E5BBE3E5E1BB3C
:10027200E0E0E2BBE3BFE2BFECBFEFBDE5E0EEBD15
:10028200E8E3EDBDEFE3ECBDE0E0E7BDE6BDEBBDCD
:10029200EABDE9BDE8BDE2BDE5BDE4BDE3BDE4E024
:1002A200E9BFEBB7E06CEBBFE0E0E5BFE4BFE0EC39
:1002B200EABFE0E8E8B9E0E0E0BFE6B9EDB9E6BFE1
:1002C2007894B4990FC0B3990DC0B1990BC0B0998D
:1002D20009C0D99902C0BED129F0D89902C0BAD1B9
:1002E20009F007C0A0E0B0E002D2E131A7E2FA07CC
:1002F2000CF004C0E4EBF0E0A0D1B1D1B4990FC08E
:10030200B3990DC0B1990BC0B09909C0D99902C077
:10031200A1D129F0D89902C09DD109F007C0A0E06F
:10032200B0E0E5D1E031A7E2FA070CF403C097D1BF
:1003320066247724042C052809F00FDFC2CFFFCFF3
:10034200AA935D9BFECFE881ECB921960895B6D1C0
:100352008D013C81A32FF4DFD801ED91FD913196FF
:10036200FE93EE93B2D125960895BA93AA93269757
:10037200A3D110E0AC85BD85E0E0F0E0ED93FC9305
:10038200EA89FB893196EA8BFB8B3197E4912E2F18
:10039200E03009F40BC1E12FE03031F4253211F4E1
:1003A20011E001C06CD101C1E130A1F4253211F498
:1003B20066D1FAC012E040E000E02D3211F401E013
:1003C200F4C02B3211F44BE2F0C0203211F440E2BF
:1003D200ECC002C0E23039F450E013E0203311F4F3
:1003E2000068E3C003C0E33009F0DFC0203310F03F
:1003F2002A3308F007C0AAE05A9F502DE22FE0539B
:100402005E0FD3C0E22FE33639F440D1E889F9898F
:10041200A481AA9341D1C8C0E33729F437D142D18C
:10042200F3D01E2F07C0E03749F430D13BD1F8D0CA
:100432001E2F086002600F7730E03AC0E43611F0F8
:10044200E93611F4046002C0E53731F4E4E5F0E086
:10045200EE83FF8315E00CC0E83511F4086003C099
:10046200E83709F0A1C0EEE5F0E0EE83FF8314E087
:1004720002FF15C00BD1A889B9891496ED91FD919F
:10048200EA87FB87AB85AA2322F424D1EA87FB877C
:100492004DE2403011F01F5F01C00B7F09C0F6D062
:1004A200A889B9891496ED91FC911197EA87FB8787
:1004B20000FD10C0151770F407FF08C002FF04C04A
:1004C2000B7F242F115001C020E301C020E2D7D0BE
:1004D2005150F0CF312F01FF16C0303099F003FF99
:1004E20006C0EE81FF812591EE83FF8305C0AE81B8
:1004F200BF812D91AE83BF83C2D0503009F05150DD
:100502003150EBCF48C020E3EE81FF81E7D0E8878E
:10051200F987EE81FF813296EE83FF83E885F985C4
:10052200AA85BB85AE17BF0750F02F5FA885B98596
:10053200EA85FB85EA1BFB0BEA87FB87EFCF2A33B1
:1005420028F003FF02C0295F01C0295D04FD19C024
:10055200213320F4A885B985119709F409C05317EE
:1005620010F000FF01C011C020E207FF0AC020E323
:10057200006102FF06C00B7F4A938ED0503009F013
:1005820051507DD0503009F051503150A885B98575
:10059200129708F0B8CF00FF07C0503029F0515031
:1005A200E0E2EA9379D0F9CF10E0EACEAC85BD85DE
:1005B200ED91FD9188D064960895FF92F82E2697CA
:1005C2001A930A93DE0114960024AF0DB01D8D011B
:1005D200E0E0EC83ED83EE83EF83DE0118960024E6
:1005E200AF0DB01DED91FD91FA93EA931A930A9320
:1005F200E8EAF1E0FA93EA93DE011896B6DE198191
:1006020008812896FF900895BA93AA93A991B99167
:10061200EE27FF276D91662311F03196FBCF0895E7
:10062200BA93AA93AA27BB27E991F99105900020D2
:1006320011F01196FBCFFD010895FA93EA9380E041
:10064200BCDF22960895EFE1EDBDE0E0ECBD66244B
:1006520077240895E1E0F0E0E615F7050895E0EE6D
:10066200F0E0FA93EA93A0E0B0E041D06F2F660F7A
:10067200660B762F37D084E0A0DF269608952A9362
:10068200AD85BE85EF85F88909950895E889F989D0
:100692003497E88BF98B0895AD85BE85EF85F8898F
:1006A20009950895A889B9891496ED91FD91EE8373
:1006B200FF83AE81BF8108955A934A933A932A9356
:1006C2001A930A9308955D814C813B812A81198195
:1006D20008810895F195E195F04008950590F4910F
:1006E200E02D08957A936A93FA93EA930895119606
:1006F20002D0FE2F1197E199FECFFF93FFB7F89436
:10070200AEBBBFBBE09AEDB3FFBFFF91089507D028
:100712001196EF93EF2F03D0EF9111970895E19B7C
:1007220002C0A895FCCF9FB7F894AEBBBFBBE09ABE
:100732008DB3E81719F0EDBBE29AE19A9FBF0895D5
:00000001FF
