:0A0000000C9444000C9400000C94D2
:10000A005F000C9485000C9400000C9400000C9482
:10001A0000000C9400000C9400000C9400000C9456
:10002A0000000C9400000C9400000C9400000C9446
:10003A0000000C9400000C9400000C9400000C9436
:10004A0000000C9400000C9400001027E8036400E0
:10005A000A00010000100001100001004174656EE1
:10006A00E7E36F212053657520636F6D62757374C2
:10007A00ED76656C20E92064652025640000F8941B
:10008A00EE27ECBBF1E0FBBFEBBFE5BF8DE0A2E0E2
:10009A00BB27ED938A95E9F780E098E0A0E6ED9317
:1000AA000197E9F7EFE5EDBFE8E0EEBFC0E6D2E081
:1000BA000C9486008A939A93AA93BA93EA93FA9332
:1000CA00EFB7EA93B09B05C0959B02C0959801C013
:1000DA00959AB19B05C0969B02C0969801C0969AC4
:1000EA00A0E0B0E034D23697A0E0B0E040D2E99187
:1000FA00EFBFF991E991B991A991999189911895CF
:10010A001895E0E0EABBEBBBE7BBE8BBE4BBE5BBA9
:10011A00E0E6E1BBE0E4E2BBE0E0E3BFE2BFECBF64
:10012A00EFBDEEBDEDBDECBDE7BDE6BDEBBDEABD85
:10013A00E9BDE8BDE2BDE5BDE4BDE3BDE9BFEBB79E
:10014A00E06AEBBFE2E0E5BFE0E0E4BFE0EAEABF75
:10015A00E0E0EAB9E0E8E8B9E0E0E0BFE6B9EDB925
:10016A00E6BF7894A0E0B0E0F2D1DF01E8EEF3E078
:10017A00D2D13B977CF4E6E6F0E0FA93EA93A0E06A
:10018A00B0E0E5D16F2F660F660B762FDBD184E0E6
:10019A0040D12696E7CFFFCFAA935D9BFECFE88199
:1001AA00ECB92196089594D18D013C81A32FF4DFF7
:1001BA00D801ED91FD913196FE93EE9390D125965B
:1001CA000895BA93AA93269781D110E0AC85BD858C
:1001DA00E0E0F0E0ED93FC93EA89FB893196EA8B43
:1001EA00FB8B3197E4912E2FE03009F40BC1E12FFC
:1001FA00E03031F4253211F411E001C04AD101C1D5
:10020A00E130A1F4253211F444D1FAC012E040E001
:10021A0000E02D3211F401E0F4C02B3211F44BE26C
:10022A00F0C0203211F440E2ECC002C0E23039F4EE
:10023A0050E013E0203311F40068E3C003C0E33058
:10024A0009F0DFC0203310F02A3308F007C0AAE013
:10025A005A9F502DE22FE0535E0FD3C0E22FE336B0
:10026A0039F41ED1E889F989A481AA931FD1C8C09B
:10027A00E33729F415D120D1F3D01E2F07C0E03778
:10028A0049F40ED119D1F8D01E2F086002600F77F9
:10029A0030E03AC0E43611F0E93611F4046002C0E5
:1002AA00E53731F4E4E5F0E0EE83FF8315E00CC0B6
:1002BA00E83511F4086003C0E83709F0A1C0EEE59B
:1002CA00F0E0EE83FF8314E002FF15C0E9D0A889AD
:1002DA00B9891496ED91FD91EA87FB87AB85AA232C
:1002EA0022F402D1EA87FB874DE2403011F01F5F0A
:1002FA0001C00B7F09C0D4D0A889B9891496ED91A1
:10030A00FC911197EA87FB8700FD10C0151770F45E
:10031A0007FF08C002FF04C00B7F242F115001C041
:10032A0020E301C020E2B5D05150F0CF312F01FFB8
:10033A0016C0303099F003FF06C0EE81FF81259187
:10034A00EE83FF8305C0AE81BF812D91AE83BF834B
:10035A00A0D0503009F051503150EBCF48C020E3C3
:10036A00EE81FF81EBD0E887F987EE81FF81329633
:10037A00EE83FF83E885F985AA85BB85AE17BF079B
:10038A0050F02F5FA885B985EA85FB85EA1BFB0B30
:10039A00EA87FB87EFCF2A3328F003FF02C0295FE1
:1003AA0001C0295D04FD19C0213320F4A885B9854F
:1003BA00119709F409C0531710F000FF01C011C0CA
:1003CA0020E207FF0AC020E3006102FF06C00B7F9C
:1003DA004A936CD0503009F051505BD0503009F03C
:1003EA0051503150A885B985129708F0B8CF00FF4F
:1003FA0007C0503029F05150E0E2EA9357D0F9CFC4
:10040A0010E0EACEAC85BD85ED91FD9166D064968B
:10041A000895FF92F82E26971A930A93DE011496EE
:10042A000024AF0DB01D8D01E0E0EC83ED83EE8377
:10043A00EF83DE0118960024AF0DB01DED91FD91FA
:10044A00FA93EA931A930A93E8EDF0E0FA93EA939F
:10045A00DE011896B6DE198108812896FF90089564
:10046A00BA93AA93A991B991EE27FF276D916623B2
:10047A0011F03196FBCF0895BA93AA93AA27BB2706
:10048A00E991F9910590002011F01196FBCFFD0139
:10049A0008952A93AD85BE85EF85F8890995089553
:1004AA00E889F9893497E88BF98B0895AD85BE857B
:1004BA00EF85F88909950895A889B9891496ED9167
:1004CA00FD91EE83FF83AE81BF8108955A934A93CB
:1004DA003A932A931A930A9308955D814C813B813A
:1004EA002A81198108810895F195E195F0400895CE
:1004FA000024112490E1AA0FBB1F001C111C0E1A24
:10050A001F0A18F40E0E1F1E01C0A1609A9599F7D2
:10051A00FD01D001089504D0EBDF0EF4E5DF089564
:10052A00E894F7FF02C0E0DF6894B7FF06C0B19510
:10053A00A195B04000F8039400FA08950590F4914B
:10054A00E02D08957A936A93FA93EA93089511969F
:10055A0002D0FE2F1197E199FECFFF93FFB7F894CF
:10056A00AEBBBFBBE09AEDB3FFBFFF91089507D0C2
:10057A001196EF93EF2F03D0EF9111970895E19B16
:10058A0002C0A895FCCF9FB7F894AEBBBFBBE09A58
:10059A008DB3E81719F0EDBBE29AE19A9FBF08956F
:00000001FF
