:060000000C94A2000C9418
:10000600CF000C94E4000C9400000C9400000C94B7
:1000160000000C9400000C9400000C9400000C945A
:10002600F8000C9400000C9400000C9400000C9452
:1000360000000C9400000C9400000C9400000C943A
:1000460000000C9400000C9400000C940000102793
:10005600E80364000A00010000100001100001001E
:100066005F5F207C207C205F5F005B5F5F5D207CA4
:10007600207C205B5F5F5D005F5F20207C2020206E
:100086007C20205F5F005B5F5F5D20207C2020205E
:100096007C20205B5F5F5D005F5F20202F7C20203F
:1000A600207C20205F5F005B5F5F5D202F207C202F
:1000B60020207C20205B5F5F5D0020205F5F20208A
:1000C6007C20207C202020005B5F5F5D207C202040
:1000D6007C205B5F5F5D00202020207C2020207C30
:1000E60020205F5F00202020207C2020207C2020F4
:1000F600202000202020202F7C2020207C20202053
:100106002000436F6D62757374ED76656C203D203B
:100116002564004174656EE7E36F21205365752001
:10012600636F6D62757374ED76656C20E9206465A6
:100136002025640080C00200A2023A010000F89463
:10014600EE27ECBBF1E0FBBFEBBFE5BF8DE0A2E025
:10015600BB27ED938A95E9F780E098E0A0E6ED935A
:100166000197E9F7ECE3F1E085919591009761F04D
:10017600A591B59105901590BF01F00105900D92DE
:100186000197E1F7FB01F0CFEFE5EDBFE8E0EEBF49
:10019600C0E6D2E00C943701AED3A0E0B0E08DD437
:1001A60031979BD4B39B05C0909B02C0909801C029
:1001B600909AB49B05C0919B02C0919801C0919AF8
:1001C6004AC099D3B09B05C0949B02C0949801C0C5
:1001D600949AB19B05C0969B02C0969801C0969AC8
:1001E60093D3A0E0B0E079D436C085D3A0E0B0E0E8
:1001F60064D47497A0E0B0E070D4B69B15C0A2E0BA
:10020600B0E05BD43196A2E0B0E067D4D89B02C0E0
:10021600D89801C0D89A7DD3D89B06C0D89AB699EB
:1002260002C0D89801C0F8CFB79B15C0A4E0B0E0D3
:1002360044D43196A4E0B0E050D4D99B02C0D998FA
:1002460001C0D99A66D3D99B06C0D99AB79902C07C
:10025600D99801C0F8CFE991EFBFF991E991B99129
:10026600A991999189911895E3E0EABBE0E0EBBB8F
:10027600E7BBE8BBE4BBE0E2E5BBE3E5E1BBE0E00E
:10028600E2BBE3BFE2BFECBFEFBDE5E0EEBDE8E3F6
:10029600EDBDEFE3ECBDE0E0E7BDE6BDEBBDEABDDD
:1002A600E9BDE8BDE2BDE5BDE4BDE3BDE4E0E9BF0F
:1002B600EBB7E06CEBBFE0E0E5BFE4BFE0ECEABF24
:1002C600E0E0EAB9E0E8E8B9E0E0E0BFE6B9EDB9B8
:1002D600E6BFA0E120D17894E2B3E03021F41ED34A
:1002E60011F425D309F00BC02BD3E6E6F0E02DD3AD
:1002F60032D3A0E037D3E0E7F0E027D339D3E2B337
:10030600E03121F40BD311F412D309F00BC018D34A
:10031600EEE7F0E01AD31FD3A1E024D3ECE8F0E037
:1003260014D326D3E2B3E03421F4F8D211F4FFD289
:1003360009F00BC005D3EEE9F0E007D30CD3A1E03A
:1003460011D3EDEAF0E001D313D3E2B3E03521F4A3
:10035600E5D211F4ECD209F00BC0F2D2EEE9F0E0EE
:10036600F4D2F9D2A1E0FED2EDEAF0E0EED200D36B
:10037600E2B3E03021F4D2D211F4D9D209F412C09A
:10038600DFD2E0ECF0E0E1D29AD0A0E6B2E0B4D061
:10039600E1E0EA93A1E0E6D2EEECF0E0D6D2A1E805
:1003A600B2E0AAD0E2B3E03021F4B8D211F0BFD265
:1003B60009F00BC0C5D2EDEDF0E0C7D2CCD2A1E07A
:1003C600D1D2ECE8F0E0C1D2D3D2E2B3E03021F4EE
:1003D600A5D211F0ACD209F40BC0B2D2EBEEF0E02C
:1003E600B4D2B9D2A1E0BED2ECE8F0E0AED2C0D22F
:1003F600E2B3E03521F492D211F099D209F40BC0A0
:100406009FD2E9EFF0E0A1D2A6D2A1E0ABD2EDEA0D
:10041600F0E09BD2ADD2E8E0F1E0B0D2A0E0B0E0EF
:100426004CD3DF01E8EEF3E01ED33B971CF4E9E181
:10043600F1E0A4D269D274F4E0E0EBBBE8BBE5BB23
:10044600E2BBE9BBE6BBE3BBE0BBEABBE7BBE4BBA5
:10045600E1BBF0CF41CFFFCF1A931A2FE5B3EF7070
:10046600AE2FE12FE07FEA2BE5BB89E18A95F1F714
:10047600AA9A89E18A95F1F7AA9889E18A95F1F70E
:1004860073C0AA93A881E8DFE881E295E883A88192
:10049600E3DF86EF8A95F1F76EC01A930A931A2F57
:1004A6000A81E12FF0E0EE55FD4FE081E00FAE2F1F
:1004B600E8DF502E412E1981088123960895A2E087
:1004C6006BD2ACE0DEDFA1E067D2E0E04E2E5E2E1E
:1004D60008951A931A2F1A3011F0571438F0E0E0E5
:1004E600EA934394A42DD9DF1A30F1F15394A89AD4
:1004F600A12FC7DFA89838C093D29D01D9012F5FDD
:100506003F4FEC911E2FE03019F0A12FE2DFF6CF1E
:100516008ED2249608951A931A2FE4B3E06FE4BBA3
:10052600A29AA09AA19AAA98A898A998712EE12FA2
:10053600E058E093A402E12FE054E093A502A4E181
:10054600B0E0E4D22DD22CD22BD2A0E285DF81E717
:1005560091E00197F1F7A8E294DFA4E092DFA5E825
:1005660090DFA6E08EDFABDF19910895AA935D9B1D
:10057600FECFE881ECB92196089552D28D013C81D7
:10058600A32FF4DFD80113D252D22596089546D26E
:100596009D015E811296ED91FC9111973097E9F0DD
:1005A600D9010BD28F01309759F00230E0E01E07D7
:1005B60060F0F80131978F01D9011496ED93FC9301
:1005C600D9011296F4D131975083D901ED91FC915E
:1005D6001197FF230AF0EBD105C0D901EFEFFFEF2A
:1005E600ED93FC9322D227960895BA93AA93269761
:1005F60015D210E0AC85BD85E0E0F0E0ED93FC930C
:10060600EA89FB893196EA8BFB8B3197E4912E2F91
:10061600E03009F408C1E12FE03031F4253211F45D
:1006260011E001C0CFD1FEC0E130A1F4253211F4B2
:10063600C9D1F7C012E040E000E02D3211F401E02C
:10064600F1C02B3211F44BE2EDC0203211F440E23E
:10065600E9C002C0E23039F450E013E0203311F46F
:100666000068E0C003C0E33009F0DCC0203310F0BE
:100676002A3308F007C0AAE05A9F502DE22FE05314
:100686005E0FD0C0E22FE33639F4A3D1E889F989A9
:10069600A481AA93A4D1C5C0E33729F49AD1A5D1E0
:1006A60011D11E2F07C0E03749F493D19ED116D140
:1006B6001E2F086002600F7730E037C0E43611F075
:1006C600E93611F4046002C0E53731F4E4E5F0E000
:1006D600EE83FF8315E00CC0E83511F4086003C013
:1006E600E83709F09EC0EEE5F0E0EE83FF8314E004
:1006F60002FF15C06ED1A889B9891496ED91FD91B6
:10070600EA87FB87AB85AA2322F496D1EA87FB8783
:100716004DE2403011F01F5F01C00B7F06C059D17A
:10072600A889B9894AD1EA87FB8700FD10C0151749
:1007360070F407FF08C002FF04C00B7F242F11507E
:1007460001C020E301C020E23DD15150F0CF312F4E
:1007560001FF16C0303099F003FF06C0EE81FF811D
:100766002591EE83FF8305C0AE81BF812D91AE83B7
:10077600BF8328D1503009F051503150EBCF48C0DB
:1007860020E3EE81FF8190D1E887F987EE81FF8132
:100796003296EE83FF83E885F985AA85BB85AE1779
:1007A600BF0750F02F5FA885B985EA85FB85EA1B50
:1007B600FB0BEA87FB87EFCF2A3328F003FF02C043
:1007C600295F01C0295D04FD19C0213320F4A885E5
:1007D600B985119709F409C0531710F000FF01C03D
:1007E60011C020E207FF0AC020E3006102FF06C035
:1007F6000B7F4A93F4D0503009F05150E3D050307B
:1008060009F051503150A885B985129708F0B8CF34
:1008160000FF07C0503029F05150E0E2EA93DFD0E4
:10082600F9CF10E0EDCEAC85BD85ED91FD91FDD003
:1008360064960895FF92F82E2697F0D0FE010024C4
:10084600EF0DF01D46855785042E052A19F4EFEFA6
:10085600FFEF18C0DE011896D2D048875987E0E02E
:10086600EA87EB87DE011C96CFD0EAECF2E0FA933A
:10087600EA93DE011C96B9DE9F01A885B985E0E002
:10088600EC93F901D2D02C96FF900895FF92F82EA2
:1008960026971A930A93DE011496B1D0E0E0EC8312
:1008A600ED83EE83EF83DE011896AED0E0ECF2E046
:1008B600FA93EA93DE01189698DE19810881289644
:1008C600FF900895BA93AA93A991B991EE27FF27AD
:1008D6006D91662311F03196FBCF0895BA93AA93D2
:1008E600AA27BB27E991F9910590002011F01196EE
:1008F600FBCFFD0108958A939A93AA93BA93EA933C
:10090600FA93EFB7EA930895A0E0B0E0D6D0369711
:100916000895EFE1EDBDE0E0ECBD0895A2E0B0E0A2
:10092600CCD0DF01E2E0F0E0A3D030970895A4E058
:10093600B0E0C3D0DF01E2E0F0E09AD0309708954E
:10094600E0E6F2E0FA93EA930895FA93EA9380E0F8
:1009560071DF24960895B3DDA0E6B2E0CDDDE3E0D5
:10096600EA9308959ADDE1E8F2E0FA93EA930895AE
:10097600A1E8B2E0C1DDA8EEB3E0C8C0FA93EA93FD
:10098600A0E0B0E09AD06F2F660F660B762F90D05E
:1009960084E07CDF2696089574DDA3E0B0E0B6C05F
:1009A600A0E35ADD81E791E00197F1F70895ED9113
:1009B600FD913196FE93EE9308951496ED91FC9178
:1009C600119708952A93AD85BE85EF85F889099517
:1009D6000895E889F9893497E88BF98B0895AD85F0
:1009E600BE85EF85F88909950895A889B989149671
:1009F600ED91FD91EE83FF83AE81BF8108950024C2
:100A0600AF0DB01D8D0108950024AF0DB01DED9101
:100A1600FD91FA93EA931A930A9308955A934A9387
:100A26003A932A931A930A9308955D814C813B81E8
:100A36002A81198108810895F195E195F04008957C
:100A46000024112490E1AA0FBB1F001C111C0E1AD2
:100A56001F0A18F40E0E1F1E01C0A1609A9599F781
:100A6600FD01D001089512D0EBDF0EF4E5DF089505
:100A7600E894B7FF04C0B195A195B0406894F7FD1E
:100A8600DBDFDEDFFD010EF4D7DF0895E894F7FF24
:100A960002C0D2DF6894B7FF06C0B195A195B040F9
:100AA60000F8039400FA08950590F491E02D089556
:100AB6007A936A93FA93EA930895119602D0FE2FD9
:100AC6001197E199FECFFF93FFB7F894AEBBBFBB7A
:100AD600E09AEDB3FFBFFF91089507D01196EF930B
:100AE600EF2F03D0EF9111970895E19B02C0A895CF
:100AF600FCCF9FB7F894AEBBBFBBE09A8DB3E817A7
:100B060019F0EDBBE29AE19A9FBF0895109639F06D
:100B1600A89586E69EE00197F1F71197C9F7089523
:00000001FF
