:0A0000000C944C000C9467000C9463
:10000A007C000C9400000C9400000C9400000C94EA
:10001A0000000C9400000C9400000C9490000C94C6
:10002A0000000C9400000C9400000C9400000C9446
:10003A0000000C9400000C9400000C9400000C9436
:10004A0000000C9400000C9400001027E8036400E0
:10005A000A0001000010000110000100436F6D62E8
:10006A00757374ED76656C203D20256400417465D6
:10007A006EE7E36F212053657520636F6D627573B8
:10008A0074ED76656C20E920646520256400F89497
:10009A00EE27ECBBF1E0FBBFEBBFE5BF8DE0A2E0D2
:1000AA00BB27ED938A95E9F780E098E0A0E6ED9307
:1000BA000197E9F7EFE5EDBFE8E0EEBFC0E6D2E071
:1000CA000C94C1002DD2A0E0B0E0A9D23197B7D2EA
:1000DA00B39B05C0909B02C0909801C0909AB49BB4
:1000EA0005C0919B02C0919801C0919A3CC018D258
:1000FA00B09B05C0949B02C0949801C0949AB19B8E
:10010A0005C0969B02C0969801C0969A12D2A0E0AA
:10011A00B0E095D228C004D2A0E0B0E080D27497B3
:10012A00A0E0B0E08CD2B69B0EC0D89B02C0D89893
:10013A0001C0D89A03D2D89B06C0D89AB69902C0F1
:10014A00D89801C0F8CFB79B0EC0D99B02C0D998E6
:10015A0001C0D99AF3D1D99B06C0D99AB79902C0DE
:10016A00D99801C0F8CFE991EFBFF991E991B99116
:10017A00A991999189911895E3E0EABBE0E0EBBB7C
:10018A00E7BBE8BBE4BBE0E2E5BBE3E5E1BBE0E0FB
:10019A00E2BBE3BFE2BFECBFEFBDE5E0EEBDE8E3E3
:1001AA00EDBDEFE3ECBDE0E0E7BDE6BDEBBDEABDCA
:1001BA00E9BDE8BDE2BDE5BDE4BDE3BDE4E0E9BFFC
:1001CA00EBB7E06CEBBFE0E0E5BFE4BFE0ECEABF11
:1001DA00E0E0EAB9E0E8E8B9E0E0E0BFE6B9EDB9A5
:1001EA00E6BF7894E6E6F0E0AED1A0E0B0E017D240
:1001FA00DF01E8EEF3E0F7D13B971CF4E7E7F0E024
:10020A00A2D197D174F4E0E0EBBBE8BBE5BBE2BB5B
:10021A00E9BBE6BBE3BBE0BBEABBE7BBE4BBE1BBD4
:10022A00F0CFE0CFFFCFAA935D9BFECFE881ECB978
:10023A0021960895B5D18D013C81A32FF4DFD80111
:10024A00ED91FD913196FE93EE93B1D125960895E5
:10025A00BA93AA932697A2D110E0AC85BD85E0E0B7
:10026A00F0E0ED93FC93EA89FB893196EA8BFB8BEC
:10027A003197E4912E2FE03009F40BC1E12FE030E1
:10028A0031F4253211F411E001C06BD101C1E13022
:10029A00A1F4253211F465D1FAC012E040E000E081
:1002AA002D3211F401E0F4C02B3211F44BE2F0C00C
:1002BA00203211F440E2ECC002C0E23039F450E0DE
:1002CA0013E0203311F40068E3C003C0E33009F0FF
:1002DA00DFC0203310F02A3308F007C0AAE05A9F83
:1002EA00502DE22FE0535E0FD3C0E22FE33639F4EC
:1002FA003FD1E889F989A481AA9340D1C8C0E337DC
:10030A0029F436D141D1F3D01E2F07C0E03749F482
:10031A002FD13AD1F8D01E2F086002600F7730E053
:10032A003AC0E43611F0E93611F4046002C0E53748
:10033A0031F4E4E5F0E0EE83FF8315E00CC0E83524
:10034A0011F4086003C0E83709F0A1C0EEE5F0E057
:10035A00EE83FF8314E002FF15C00AD1A889B98988
:10036A001496ED91FD91EA87FB87AB85AA2322F4C7
:10037A0023D1EA87FB874DE2403011F01F5F01C0AD
:10038A000B7F09C0F5D0A889B9891496ED91FC9123
:10039A001197EA87FB8700FD10C0151770F407FF55
:1003AA0008C002FF04C00B7F242F115001C020E3B4
:1003BA0001C020E2D6D05150F0CF312F01FF16C034
:1003CA00303099F003FF06C0EE81FF812591EE835C
:1003DA00FF8305C0AE81BF812D91AE83BF83C1D09B
:1003EA00503009F051503150EBCF48C020E3EE8134
:1003FA00FF810CD1E887F987EE81FF813296EE837F
:10040A00FF83E885F985AA85BB85AE17BF0750F03B
:10041A002F5FA885B985EA85FB85EA1BFB0BEA876E
:10042A00FB87EFCF2A3328F003FF02C0295F01C000
:10043A00295D04FD19C0213320F4A885B9851197D7
:10044A0009F409C0531710F000FF01C011C020E2DF
:10045A0007FF0AC020E3006102FF06C00B7F4A9330
:10046A008DD0503009F051507CD0503009F05150A5
:10047A003150A885B985129708F0B8CF00FF07C098
:10048A00503029F05150E0E2EA9378D0F9CF10E0E9
:10049A00EACEAC85BD85ED91FD9187D0649608952D
:1004AA00FF92F82E26971A930A93DE0114960024D7
:1004BA00AF0DB01D8D01E0E0EC83ED83EE83EF8399
:1004CA00DE0118960024AF0DB01DED91FD91FA934F
:1004DA00EA931A930A93EFE1F1E0FA93EA93DE01C1
:1004EA001896B6DE198108812896FF900895BA9366
:1004FA00AA93A991B991EE27FF276D91662311F06E
:10050A003196FBCF0895BA93AA93AA27BB27E991FC
:10051A00F9910590002011F01196FBCFFD01089585
:10052A008A939A93AA93BA93EA93FA93EFB7EA93C0
:10053A000895A0E0B0E073D036970895EFE1EDBDDD
:10054A00E0E0ECBD0895FA93EA93A0E0B0E067D04A
:10055A006F2F660F660B762F5DD084E0A1DF26969B
:10056A0008952A93AD85BE85EF85F8890995089582
:10057A00E889F9893497E88BF98B0895AD85BE85AA
:10058A00EF85F88909950895A889B9891496ED9196
:10059A00FD91EE83FF83AE81BF8108955A934A93FA
:1005AA003A932A931A930A9308955D814C813B8169
:1005BA002A81198108810895F195E195F0400895FD
:1005CA000024112490E1AA0FBB1F001C111C0E1A53
:1005DA001F0A18F40E0E1F1E01C0A1609A9599F702
:1005EA00FD01D001089504D0EBDF0EF4E5DF089594
:1005FA00E894F7FF02C0E0DF6894B7FF06C0B19540
:10060A00A195B04000F8039400FA08950590F4917A
:10061A00E02D08957A936A93FA93EA9308951196CE
:10062A0002D0FE2F1197E199FECFFF93FFB7F894FE
:10063A00AEBBBFBBE09AEDB3FFBFFF91089507D0F1
:10064A001196EF93EF2F03D0EF9111970895E19B45
:10065A0002C0A895FCCF9FB7F894AEBBBFBBE09A87
:10066A008DB3E81719F0EDBBE29AE19A9FBF08959E
:00000001FF
