:080000000C9448000C94000070
:100008000C9400000C9400000C9400000C94000068
:100018000C9400000C9400000C9400000C946300F5
:100028000C9400000C9400000C9400000C94000048
:100038000C9400000C9400000C9400000C94000038
:100048000C9400000C9400000C9400001027E803A6
:1000580064000A0001000010000110000100416C5A
:10006800657274612E20416261737465E7612120B5
:1000780053657520636F6D62757374ED76656C20DA
:10008800E920646520256400F894EE27ECBBF1E0D4
:10009800FBBFEBBFE5BF8DE0A2E0BB27ED938A95E0
:1000A800E9F780E098E0A0E6ED930197E9F7EFE53E
:1000B800EDBFE8E0EEBFC0E6D2E00C949B008A9367
:1000C8009A93AA93BA93EA93FA93EFB7EA93A0E0C4
:1000D800B0E05DD27497A0E0B0E069D2B69B0EC0E4
:1000E800D89B02C0D89801C0D89AEED1D89B06C038
:1000F800D89AB69902C0D89801C0F8CFB79B0EC05D
:10010800D99B02C0D99801C0D99ADED1D99B06C023
:10011800D99AB79902C0D99801C0F8CFE991EFBF31
:10012800F991E991B991A991999189911895E0E08E
:10013800EBBBE3E0EABBE0E0E8BBE7BBE5BBE4BB65
:10014800E2BBE1BBE3BFE2BFE0E4EFBDE5E0EEBD4B
:10015800E8E3EDBDEFE3ECBDE0E0E7BDE6BDEFEFC2
:10016800EBBDEABDE0E0E9BDE8BDE2BDE5BDE4BD4B
:10017800E3BDEBB7E062EBBFE0E0E5BFE4BFE0E280
:10018800EABFE4E0E9BFE0E0EAB9E0E8E8B9E0E0C6
:10019800E0BFE6B9EDB9E6BF7894A0E0B0E0F7D1EA
:1001A800DF01E8EEF3E0D7D13B977CF4E6E6F0E038
:1001B800FA93EA93A0E0B0E0EAD16F2F660F660BDE
:1001C800762FE0D184E040D12696E7CFFFCFAA93DF
:1001D8005D9BFECFE881ECB92196089599D18D01F8
:1001E8003C81A32FF4DFD801ED91FD913196FE9368
:1001F800EE9395D125960895BA93AA93269786D11A
:1002080010E0AC85BD85E0E0F0E0ED93FC93EA8971
:10021800FB893196EA8BFB8B3197E4912E2FE030E6
:1002280009F40BC1E12FE03031F4253211F411E06B
:1002380001C04FD101C1E130A1F4253211F449D1F7
:10024800FAC012E040E000E02D3211F401E0F4C001
:100258002B3211F44BE2F0C0203211F440E2ECC032
:1002680002C0E23039F450E013E0203311F40068A2
:10027800E3C003C0E33009F0DFC0203310F02A33B5
:1002880008F007C0AAE05A9F502DE22FE0535E0FF6
:10029800D3C0E22FE33639F423D1E889F989A48160
:1002A800AA9324D1C8C0E33729F41AD125D1F3D0B1
:1002B8001E2F07C0E03749F413D11ED1F8D01E2FE6
:1002C800086002600F7730E03AC0E43611F0E93692
:1002D80011F4046002C0E53731F4E4E5F0E0EE83A0
:1002E800FF8315E00CC0E83511F4086003C0E83757
:1002F80009F0A1C0EEE5F0E0EE83FF8314E002FF11
:1003080015C0EED0A889B9891496ED91FD91EA87B8
:10031800FB87AB85AA2322F407D1EA87FB874DE246
:10032800403011F01F5F01C00B7F09C0D9D0A889E8
:10033800B9891496ED91FC911197EA87FB8700FD26
:1003480010C0151770F407FF08C002FF04C00B7F28
:10035800242F115001C020E301C020E2BAD051502F
:10036800F0CF312F01FF16C0303099F003FF06C0DF
:10037800EE81FF812591EE83FF8305C0AE81BF81A9
:100388002D91AE83BF83A5D0503009F05150315024
:10039800EBCF48C020E3EE81FF81F0D0E887F987F2
:1003A800EE81FF813296EE83FF83E885F985AA8581
:1003B800BB85AE17BF0750F02F5FA885B985EA85C2
:1003C800FB85EA1BFB0BEA87FB87EFCF2A3328F074
:1003D80003FF02C0295F01C0295D04FD19C0213354
:1003E80020F4A885B985119709F409C0531710F0AE
:1003F80000FF01C011C020E207FF0AC020E300612E
:1004080002FF06C00B7F4A9371D0503009F051505B
:1004180060D0503009F051503150A885B9851297F5
:1004280008F0B8CF00FF07C0503029F05150E0E283
:10043800EA935CD0F9CF10E0EACEAC85BD85ED91AA
:10044800FD916BD064960895FF92F82E26971A9323
:100458000A93DE0114960024AF0DB01D8D01E0E073
:10046800EC83ED83EE83EF83DE0118960024AF0D55
:10047800B01DED91FD91FA93EA931A930A93E2EF76
:10048800F0E0FA93EA93DE011896B6DE1981088146
:100498002896FF900895BA93AA93A991B991EE2747
:1004A800FF276D91662311F03196FBCF0895BA931B
:1004B800AA93AA27BB27E991F9910590002011F08A
:1004C8001196FBCFFD010895EFE1EDBDE0E0ECBD35
:1004D80008952A93AD85BE85EF85F8890995089515
:1004E800E889F9893497E88BF98B0895AD85BE853D
:1004F800EF85F88909950895A889B9891496ED9129
:10050800FD91EE83FF83AE81BF8108955A934A938C
:100518003A932A931A930A9308955D814C813B81FB
:100528002A81198108810895F195E195F04008958F
:100538000024112490E1AA0FBB1F001C111C0E1AE5
:100548001F0A18F40E0E1F1E01C0A1609A9599F794
:10055800FD01D001089504D0EBDF0EF4E5DF089526
:10056800E894F7FF02C0E0DF6894B7FF06C0B195D2
:10057800A195B04000F8039400FA08950590F4910D
:10058800E02D08957A936A93FA93EA930895119661
:1005980002D0FE2F1197E199FECFFF93FFB7F89491
:1005A800AEBBBFBBE09AEDB3FFBFFF91089507D084
:1005B8001196EF93EF2F03D0EF9111970895E19BD8
:1005C80002C0A895FCCF9FB7F894AEBBBFBBE09A1A
:1005D8008DB3E81719F0EDBBE29AE19A9FBF089531
:00000001FF
