:0E0000000C943D000C9400000C9400000C9435
:10000E006A000C9400000C9400000C9400000C94F8
:10001E0000000C9400000C9400000C9400000C9452
:10002E0000000C9400000C9400000C9400000C9442
:10003E0000000C9400000C9400000C9400000C9432
:10004E0000000C9400001027E80364000A00010071
:10005E0000100001100001000000460080C00200E8
:10006E0004006600020081026A000000F894EE2788
:10007E00ECBBF1E0FBBFEBBFE5BF8DE0A2E0BB2721
:10008E00ED938A95E9F780E098E0A0E6ED9301976D
:10009E00E9F7ECE6F0E085919591009761F0A59176
:1000AE00B59105901590BF01F00105900D92019745
:1000BE00E1F7FB01F0CFEFE5EDBFE8E0EEBFC0E604
:1000CE00D2E00C947E000A92EA93FA93EFB7EA9389
:1000DE00042C052819F04424552403C0E1E0F0E077
:1000EE002F01E991EFBFF991E99109901895E0E0A0
:1000FE00EABBEBBBE7BBE8BBE4BBE5BBE1BBE2BBEA
:10010E00E3BFE2BFECBFEFBDEEBDEDBDECBDE7BDA5
:10011E00E6BDEBBDEABDE9BDE8BDE2BDE5BDE4BDB2
:10012E00E3BDE9BFEBB7E062EBBFE0E0E5BFE4BFE4
:10013E00E0E2EABFE0E0EAB9E0E8E8B9E0E0E0BF1B
:10014E00E6B9EDB9E6BFA8E003D27894042C0528F1
:10015E0021F042D2E8E6F0E003C03ED2E9E6F0E05C
:10016E00FA93EA9380E05DD12496C6D1A0E6B2E080
:10017E00E0D1A8E8B3E182D2E9CFFFCF69D29D01E9
:10018E005E811296ED91FC9111973097E9F0D901AD
:10019E002CD28F01309759F00230E0E01E0760F04C
:1001AE00F80131978F01D9011496ED93FC93D90183
:1001BE00129620D231975083D901ED91FC9111976F
:1001CE00FF230AF017D205C0D901EFEFFFEFED9331
:1001DE00FC9345D227960895BA93AA93269738D2C0
:1001EE0010E0AC85BD85E0E0F0E0ED93FC93EA898C
:1001FE00FB893196EA8BFB8B3197E4912E2FE03001
:10020E0009F408C1E12FE03031F4253211F411E088
:10021E0001C0F6D1FEC0E130A1F4253211F4F0D1C7
:10022E00F7C012E040E000E02D3211F401E0F1C021
:10023E002B3211F44BE2EDC0203211F440E2E9C052
:10024E0002C0E23039F450E013E0203311F40068BC
:10025E00E0C003C0E33009F0DCC0203310F02A33D5
:10026E0008F007C0AAE05A9F502DE22FE0535E0F10
:10027E00D0C0E22FE33639F4CAD1E889F989A481D6
:10028E00AA93CBD1C5C0E33729F4C1D1CCD18BD140
:10029E001E2F07C0E03749F4BAD1C5D190D11E2F19
:1002AE00086002600F7730E037C0E43611F0E936AF
:1002BE0011F4046002C0E53731F4E4E5F0E0EE83BA
:1002CE00FF8315E00CC0E83511F4086003C0E83771
:1002DE0009F09EC0EEE5F0E0EE83FF8314E002FF2E
:1002EE0015C095D1A889B9891496ED91FD91EA872B
:1002FE00FB87AB85AA2322F4B9D1EA87FB874DE2AF
:10030E00403011F01F5F01C00B7F06C080D1A8895D
:10031E00B9896BD1EA87FB8700FD10C0151770F401
:10032E0007FF08C002FF04C00B7F242F115001C02D
:10033E0020E301C020E264D15150F0CF312F01FFF4
:10034E0016C0303099F003FF06C0EE81FF81259173
:10035E00EE83FF8305C0AE81BF812D91AE83BF8337
:10036E004FD1503009F051503150EBCF48C020E3FF
:10037E00EE81FF817FD1E887F987EE81FF8132968A
:10038E00EE83FF83E885F985AA85BB85AE17BF0787
:10039E0050F02F5FA885B985EA85FB85EA1BFB0B1C
:1003AE00EA87FB87EFCF2A3328F003FF02C0295FCD
:1003BE0001C0295D04FD19C0213320F4A885B9853B
:1003CE00119709F409C0531710F000FF01C011C0B6
:1003DE0020E207FF0AC020E3006102FF06C00B7F88
:1003EE004A931BD1503009F051500AD1503009F0C8
:1003FE0051503150A885B985129708F0B8CF00FF3B
:10040E0007C0503029F05150E0E2EA9306D1F9CFFF
:10041E0010E0EDCEAC85BD85ED91FD9120D16496B9
:10042E000895FF92F82E269713D1FE010024EF0DAA
:10043E00F01D46855785042E052A19F4EFEFFFEFC0
:10044E0023C0DE0118960024AF0DB01D8D01488724
:10045E005987E0E0EA87EB87DE011C960024AF0D9A
:10046E00B01DED91FD91FA93EA931A930A93E5EC80
:10047E00F0E0FA93EA93DE011C96AEDE9F01A885AA
:10048E00B985E0E0EC93F901EAD02C96FF9008953F
:10049E001A931A2FE5B3EF70AE2FE12FE07FEA2B00
:1004AE00E5BB8DE08A95F1F7AA9A8DE08A95F1F772
:1004BE00AA988DE08A95F1F774C0AA93A881E8DF17
:1004CE00E881E295E883A881E3DF85E88A95F1F774
:1004DE00219608951A930A931A2F0A81E12FF0E0BC
:1004EE00EF57FD4FE081E00FAE2FE7DF702E612E4C
:1004FE001981088123960895A2E09FD0ACE0DDDF3C
:10050E00A1E09BD0E0E06E2E7E2E08951A931A2F56
:10051E001A3011F0791438F0E0E0EA936394A62DC6
:10052E00D9DF1A30F1F17394A89AA12FC6DFA898DB
:10053E0038C090D09D01D9012F5F3F4FEC911E2FF7
:10054E00E03019F0A12FE2DFF6CF8BD0249608957C
:10055E001A931A2FE4B3E06FE4BBA29AA09AA19A61
:10056E00AA98A898A998912EE12FE058E0938302BB
:10057E00E12FE054E0938402A4E1B0E07FD061D09B
:10058E0060D05FD0A0E284DF88EC90E00197F1F7B5
:10059E00A8E293DFA4E091DFA5E88FDFA6E08DDF70
:1005AE00ABDF19910895BA93AA93A991B991EE2749
:1005BE00FF276D91662311F03196FBCF0895BA9304
:1005CE00AA93AA27BB27E991F9910590002011F073
:1005DE001196FBCFFD010895E0E0EA93A0E07ADFEB
:1005EE00E0E6F2E0FA93EA9308951496ED91FC9109
:1005FE0011970895ED91FD913196FE93EE93089526
:10060E002A93AD85BE85EF85F88909950895E88909
:10061E00F9893497E88BF98B0895AD85BE85EF8502
:10062E00F88909950895A889B9891496ED91FD91D7
:10063E00EE83FF83AE81BF8108953FDFA3E0B0E07C
:10064E001DC0A0E325DF88EC90E00197F1F7089537
:10065E005A934A933A932A931A930A9308955D8173
:10066E004C813B812A81198108810895F195E1958C
:10067E00F04008950590F491E02D0895109639F00C
:10068E00A89580ED97E00197F1F71197C9F70895B6
:00000001FF
