:060000000C9488000C9432
:10000600D4000C9409010C942F010C9400000C945C
:1000160000000C9400000C9400000C9400000C945A
:1000260043010C9400000C9400000C9400000C9406
:1000360000000C9400000C9400000C9400000C943A
:1000460000000C9400000C9400000C940000102793
:10005600E80364000A00010000100001100001001E
:10006600000000000000000000004F205369737478
:10007600656D61206669636F752073656D20636FBA
:100086006D627573746976656C2C2070617261207F
:100096007265616261737465636572206170657211
:1000A6007465207175616C7175657220626F74E399
:1000B6006F210A004C462031004C462030004C543B
:1000C6002031004C5420300050452041005045203E
:1000D6004600504420410050442046004A442041F6
:1000E600004A442046004A452041004A4520460031
:1000F600207C00206900206F000080C00A000400F8
:1001060066000200AA0200010000F894EE27ECBB8C
:10011600F1E0FBBFEBBFE5BF8DE0A2E0BB27ED93AF
:100126008A95E9F780E098E0A0E6ED930197E9F774
:10013600E2E0F1E085919591009761F0A591B59186
:1001460005901590BF01F00105900D920197E1F71A
:10015600FB01F0CFEFE5EDBFE8E0EEBFC0E6D2E091
:100166000C948801A0E0B0E0C0D400240E160F065F
:100176004CF4A0E0B0E0B9D4E95EF340A0E0B0E012
:10018600C4D40CC0A0E0B0E0E0E6FDE6BED4E0E7F3
:10019600F0E0FA93EA9380E010D3229644245524A3
:1001A6000895EA93FA93B49B16C0909B02C0909868
:1001B60001C0909AE1E0F0E02F01909B07C0E1E0DA
:1001C600F0E0E093A402F093A50205C0E0E0E0931E
:1001D600A402E093A502B39B16C0919B02C091981E
:1001E60001C0919AE1E0F0E02F01919B07C0E1E0A8
:1001F600F0E0E093A202F093A30205C0E0E0E093F2
:10020600A202E093A302F991E9911895A7D3B19BB5
:1002160010C0949B02C0949801C0949AE1E0F0E06B
:100226002F01949B04C0E1E0F0E05F0102C0AA2424
:10023600BB24B09B10C0969B02C0969801C0969AAC
:10024600E1E0F0E02F01969B04C0E1E0F0E06F01F1
:1002560002C0CC24DD240FC081D385D331F0E0E089
:10026600E093A802E093A90206C0E1E0F0E0E09383
:10027600A802F093A902E991EFBFF991E9911895C7
:100286000A92EA93FA93EFB7EA93B69B1BC0E1E0B2
:10029600F0E02F01D89B02C0D89801C0D89A69D344
:1002A600062C072819F06624772403C0E1E0F0E065
:1002B6003F01D89B07C0D89AB69903C0D89862D395
:1002C60001C0F7CFB79B1BC0E1E0F0E02F01D99B3F
:1002D60002C0D99801C0D99A4CD3082C092819F024
:1002E6008824992403C0E1E0F0E04F01D99B07C0C0
:1002F600D99AB79903C0D99845D301C0F7CFE991E8
:10030600EFBFF991E99109901895E3E0EABBE0E0C7
:10031600EBBBE7BBE8BBE4BBE0E2E5BBE3E5E1BB87
:10032600E0E0E2BBE3BFE2BFECBFEFBDE5E0EEBD60
:10033600E8E3EDBDEFE3ECBDE0E0E7BDE6BDEBBD18
:10034600EABDE9BDE8BDE2BDE5BDE4BDE3BDE4E06F
:10035600E9BFEBB7E06EEBBFE0E0E5BFE4BFE0EE80
:10036600EABFE0E8E8B9E0E0E0BFE6B9EDB9E6BF2C
:10037600A0E1AFD27894E091A202F091A302309767
:1003860021F007D3EAEBF0E003C003D3EFEBF0E094
:10039600FA93EA9380E0E5D1249661D2A0E6B2E032
:1003A60089D2E091A402F091A502309721F0FAD209
:1003B600E4ECF0E003C0F6D2E9ECF0E0FA93EA935D
:1003C600FAD20A2C0B2821F0FCD2EEECF0E003C0A6
:1003D600F8D2E3EDF0E0FA93EA93FCD20C2C0D2868
:1003E60021F0FED2E8EDF0E003C0FAD2EDEDF0E048
:1003F600FA93EA93EFD2082C092821F0FAD2E2EE1A
:10040600F0E003C0F6D2E7EEF0E0FA93EA93E2D228
:10041600062C072821F0F6D2ECEEF0E003C0F2D26B
:10042600E1EFF0E0FA93EA93D5D2A0E0B0E05DD335
:10043600E83EA3E0FA0724F0EED2E6EFF0E015C0BE
:10044600A0E0B0E052D3E93EA3E0FA0734F4E3D2E9
:10045600E9EFF0E0FA93EA93BDD2A0E0B0E045D32D
:10046600309731F4D8D2ECEFF0E0FA93EA93B2D2B7
:100476007AD221F0D9D2E6EDF0E003C0D5D2E9EB8D
:10048600F0E0FA93EA9397D2042C052809F06ADE85
:10049600A8E8B3E153D36FCFFFCFAA935D9BFECFFE
:1004A600E881ECB90C941C040CD38D013C81A32F7C
:1004B600F4DFD801C2D20CD32596089500D39D014E
:1004C6005E811296ED91FC9111973097E9F0D90172
:1004D600BAD28F01309759F00230E0E01E0760F083
:1004E600F80131978F01D9011496ED93FC93D90148
:1004F6001296A3D231975083D901ED91FC911197B1
:10050600FF230AF09AD205C0D901EFEFFFEFED9372
:10051600FC93DCD227960895BA93AA932697CFD256
:1005260010E0AC85BD85E0E0F0E0ED93FC93EA8950
:10053600FB893196EA8BFB8B3197E4912E2FE030C5
:1005460009F408C1E12FE03031F4253211F411E04D
:1005560001C07ED2FEC0E130A1F4253211F478D27A
:10056600F7C012E040E000E02D3211F401E0F1C0E6
:100576002B3211F44BE2EDC0203211F440E2E9C017
:1005860002C0E23039F450E013E0203311F4006881
:10059600E0C003C0E33009F0DCC0203310F02A339A
:1005A60008F007C0AAE05A9F502DE22FE0535E0FD5
:1005B600D0C0E22FE33639F452D2E889F989A48112
:1005C600AA9353D2C5C0E33729F449D254D2ADD148
:1005D6001E2F07C0E03749F442D24DD2B2D11E2FAA
:1005E600086002600F7730E037C0E43611F0E93674
:1005F60011F4046002C0E53731F4E4E5F0E0EE837F
:10060600FF8315E00CC0E83511F4086003C0E83735
:1006160009F09EC0EEE5F0E0EE83FF8314E002FFF2
:1006260015C01DD2A889B9891496ED91FD91EA8766
:10063600FB87AB85AA2322F450D2EA87FB874DE2DB
:10064600403011F01F5F01C00B7F06C008D2A88999
:10065600B989F9D1EA87FB8700FD10C0151770F438
:1006660007FF08C002FF04C00B7F242F115001C0F2
:1006760020E301C020E2ECD15150F0CF312F01FF31
:1006860016C0303099F003FF06C0EE81FF81259138
:10069600EE83FF8305C0AE81BF812D91AE83BF83FC
:1006A600D7D1503009F051503150EBCF48C020E33C
:1006B600EE81FF8116D2E887F987EE81FF813296B7
:1006C600EE83FF83E885F985AA85BB85AE17BF074C
:1006D60050F02F5FA885B985EA85FB85EA1BFB0BE1
:1006E600EA87FB87EFCF2A3328F003FF02C0295F92
:1006F60001C0295D04FD19C0213320F4A885B98500
:10070600119709F409C0531710F000FF01C011C07A
:1007160020E207FF0AC020E3006102FF06C00B7F4C
:100726004A93A3D1503009F0515092D1503009F07C
:1007360051503150A885B985129708F0B8CF00FFFF
:1007460007C0503029F05150E0E2EA938ED1F9CF3C
:1007560010E0EDCEAC85BD85ED91FD91B7D16496E7
:100766000895FF92F82E2697AAD1FE010024EF0DD8
:10077600F01D46855785042E052A19F4EFEFFFEF85
:1007860018C0DE01189681D148875987E0E0EA87CC
:10079600EB87DE011C967ED1E1E6F2E0FA93EA935E
:1007A600DE011C96B9DE9F01A885B985E0E0EC93D1
:1007B600F9018CD12C96FF900895FF92F82E26977A
:1007C6001A930A93DE01149660D1E0E0EC83ED8380
:1007D600EE83EF83DE0118965DD1E7E5F2E0FA934A
:1007E600EA93DE01189698DE198108812896FF9013
:1007F60008951A931A2FE5B3EF70AE2FE12FE07F1D
:10080600EA2BE5BB8DE08A95F1F7AA9A8DE08A95E9
:10081600F1F7AA988DE08A95F1F785C0AA93A88189
:10082600E8DFE881E295E883A881E3DF85E88A9539
:10083600F1F7219608951A930A931A2F0A81E12F48
:10084600F0E0E655FD4FE081E00FAE2FE7DF0093C5
:10085600AE021093AF021981088123960895A2E093
:1008660023D1ACE0DBDFA1E01FD1E0E0E093AF02F3
:10087600E093AE0208951A931A2F1A3031F0E091E0
:10088600B002A091AE02AE1758F0E0E0EA93A09154
:10089600AF02AF5FA093AF02CEDF1A3009F443C0B8
:1008A600E091AE02EF5FE093AE02A89AA12FB6DF09
:1008B600A89839C006D19D01D9012F5F3F4FEC9111
:1008C6001E2FE03019F0A12FD6DFF6CF01D12496E6
:1008D60008951A931A2FE4B3E06FE4BBA29AA09A84
:1008E600A19AAA98A898A9981093B002E12FE05867
:1008F600E093AC02E12FE054E093AD02A4E1B0E056
:100906001DD1D6D0D5D0D4D0A0E273DF88EC90E04C
:100916000197F1F7A8E282DFA4E080DFA5E87EDF99
:10092600A6E07CDF9CDF19910895BA93AA93A9915A
:10093600B991EE27FF276D91662311F03196FBCF13
:100946000895BA93AA93AA27BB27E991F99105902E
:10095600002011F01196FBCFFD010895EA93FA935A
:10096600EFB7EA930895E091A802F091A9023097B3
:100976000895EFE1EDBDE0E0ECBDE093A602E09363
:10098600A7020895E1E0F0E0E093A602F093A70243
:100996000895E0E0EA93A0E04EDFE0E6F2E0FA93A5
:1009A600EA930895E5E0EA93A0E045DFE0E6F2E0A9
:1009B600FA93EA93089580E0D4DE2496A0E6B2E0A6
:1009C60079CFE0E0EA93A1E036DFE1E8F2E0FA93DE
:1009D600EA93089580E0C5DE2496A1E8B2E06ACFE6
:1009E600E5E0EA93A1E027DFE1E8F2E0FA93EA9393
:1009F6000895EAE0EA93A0E01EDFE1E8F2E0FA9368
:100A0600EA930895EAE0EA93A1E015DFE1E8F2E06F
:100A1600FA93EA930895EEE0EA93A1E00CDFE1E8A9
:100A2600F2E0FA93EA930895EFE0EA93A0E003DF99
:100A3600E0E6F2E0FA93EA930895ED91FD9131969E
:100A4600FE93EE9308951496ED91FC9111970895F7
:100A56002A93AD85BE85EF85F88909950895E889BD
:100A6600F9893497E88BF98B0895AD85BE85EF85B6
:100A7600F88909950895A889B9891496ED91FD918B
:100A8600EE83FF83AE81BF8108950024AF0DB01DB4
:100A96008D0108950024AF0DB01DED91FD91FA93DF
:100AA600EA931A930A930895B9DEA3E0B0E046C02C
:100AB600A0E39FDE88EC90E00197F1F708955A9342
:100AC6004A933A932A931A930A9308955D814C8127
:100AD6003B812A81198108810895F195E195F040BD
:100AE60008950590F491E02D0895119602D0FE2FF9
:100AF6001197E199FECFFF93FFB7F894AEBBBFBB4A
:100B0600E09AEDB3FFBFFF91089507D01196EF93DA
:100B1600EF2F03D0EF9111970895E19B02C0A8959E
:100B2600FCCF9FB7F894AEBBBFBBE09A8DB3E81776
:100B360019F0EDBBE29AE19A9FBF0895109639F03D
:100B4600A89580ED97E00197F1F71197C9F70895F9
:00000001FF
