:0A0000000C9488000C94D4000C94BA
:10000A0009010C9400000C9400000C9400000C945C
:10001A0000000C9400000C9400000C9436010C941F
:10002A0000000C9400000C9400000C9400000C9446
:10003A0000000C9400000C9400000C9400000C9436
:10004A0000000C9400000C9400001027E8036400E0
:10005A000A00010000100001100001000000000069
:10006A000000000000004F2053697374656D612021
:10007A006669636F752073656D20636F6D62757352
:10008A00746976656C2C2070617261207265616298
:10009A00617374656365722061706572746520713D
:1000AA0075616C7175657220626F74E36F210A0065
:1000BA004C462031004C462030004C542031004C34
:1000CA0054203000504520410050452046005044FD
:1000DA0020410050442046004A442041004A44201E
:1000EA0046004A452041004A45204600207C00201F
:1000FA006900206F000080C00A0004006600020048
:10010A00A80200010000F894EE27ECBBF1E0FBBF67
:10011A00EBBFE5BF8DE0A2E0BB27ED938A95E9F737
:10012A0080E098E0A0E6ED930197E9F7E2E0F1E0DC
:10013A0085919591009761F0A591B59105901590DB
:10014A00BF01F00105900D920197E1F7FB01F0CF95
:10015A00EFE5EDBFE8E0EEBFC0E6D2E00C947B012C
:10016A00A0E0B0E092D400240E160F064CF4A0E0F2
:10017A00B0E08BD4E95EF340A0E0B0E096D40CC0C6
:10018A00A0E0B0E0E0E6FDE690D4E0E7F0E0FA9324
:10019A00EA9380E0FCD22296442455240895EA93F7
:1001AA00FA93B49B16C0909B02C0909801C0909A93
:1001BA00E1E0F0E02F01909B07C0E1E0F0E0E0937E
:1001CA00A402F093A50205C0E0E0E093A402E09344
:1001DA00A502B39B16C0919B02C0919801C0919A47
:1001EA00E1E0F0E02F01919B07C0E1E0F0E0E0934D
:1001FA00A202F093A30205C0E0E0E093A202E0931A
:10020A00A302F991E9911895EA93FA93EFB7EA9361
:10021A00B19B10C0949B02C0949801C0949AE1E0EB
:10022A00F0E02F01949B04C0E1E0F0E05F0102C01E
:10023A00AA24BB24B09B10C0969B02C0969801C00A
:10024A00969AE1E0F0E02F01969B04C0E1E0F0E02D
:10025A006F0102C0CC24DD24E991EFBFF991E99145
:10026A0018950A92EA93FA93EFB7EA93B69B1BC0E2
:10027A00E1E0F0E02F01D89B02C0D89801C0D89ADB
:10028A0057D3062C072819F06624772403C0E1E027
:10029A00F0E03F01D89B07C0D89AB69903C0D89816
:1002AA0050D301C0F7CFB79B1BC0E1E0F0E02F01AC
:1002BA00D99B02C0D99801C0D99A3AD3082C0928E7
:1002CA0019F08824992403C0E1E0F0E04F01D99B9A
:1002DA0007C0D99AB79903C0D99833D301C0F7CFC9
:1002EA00E991EFBFF991E99109901895E3E0EABB2A
:1002FA00E0E0EBBBE7BBE8BBE4BBE0E2E5BBE3E580
:10030A00E1BBE0E0E2BBE3BFE2BFECBFEFBDE5E08B
:10031A00EEBDE8E3EDBDEFE3ECBDE0E0E7BDE6BD31
:10032A00EBBDEABDE9BDE8BDE2BDE5BDE4BDE3BDA7
:10033A00E4E0E9BFEBB7E06CEBBFE0E0E5BFE4BFA8
:10034A00E0ECEABFE0E8E8B9E0E0E0BFE6B9EDB921
:10035A00E6BFA0E1A8D27894E091A202F091A302AC
:10036A00309721F0F5D2EAEBF0E003C0F1D2EFEBDF
:10037A00F0E0FA93EA9380E0DED124965AD2A0E61E
:10038A00B2E082D2E091A402F091A502309721F066
:10039A00E8D2E4ECF0E003C0E4D2E9ECF0E0FA934E
:1003AA00EA9380E0C8D12496A0E6B2E06DD20A2C86
:1003BA000B2821F0DFD2EEECF0E003C0DBD2E3ED54
:1003CA00F0E0FA93EA93DFD20C2C0D2821F0E1D267
:1003DA00E8EDF0E003C0DDD2EDEDF0E0FA93EA9348
:1003EA00D2D2082C092821F0DDD2E2EEF0E003C0D7
:1003FA00D9D2E7EEF0E0FA93EA93C5D2062C0728A1
:10040A0021F0D9D2ECEEF0E003C0D5D2E1EFF0E072
:10041A00FA93EA93B8D2A0E0B0E037D3E83EA3E07B
:10042A00FA0724F0D1D2E6EFF0E015C0A0E0B0E080
:10043A002CD3E93EA3E0FA0734F4C6D2E9EFF0E0A0
:10044A00FA93EA93A0D2A0E0B0E01FD3309731F438
:10045A00BBD2ECEFF0E0FA93EA9395D2042C05288C
:10046A0009F07EDEA8E8B3E139D376CFFFCFAA93AD
:10047A005D9BFECFE881ECB90C940804F2D28D01A1
:10048A003C81A32FF4DFD801A8D2F2D22596089591
:10049A00E6D29D015E811296ED91FC9111973097FB
:1004AA00E9F0D901A0D28F01309759F00230E0E08B
:1004BA001E0760F0F80131978F01D9011496ED9368
:1004CA00FC93D901129689D231975083D901ED91C3
:1004DA00FC911197FF230AF080D205C0D901EFEFF2
:1004EA00FFEFED93FC93C2D227960895BA93AA938D
:1004FA002697B5D210E0AC85BD85E0E0F0E0ED933B
:10050A00FC93EA89FB893196EA8BFB8B3197E4915C
:10051A002E2FE03009F408C1E12FE03031F4253202
:10052A0011F411E001C064D2FEC0E130A1F4253219
:10053A0011F45ED2F7C012E040E000E02D3211F46F
:10054A0001E0F1C02B3211F44BE2EDC0203211F47C
:10055A0040E2E9C002C0E23039F450E013E020334F
:10056A0011F40068E0C003C0E33009F0DCC02033B6
:10057A0010F02A3308F007C0AAE05A9F502DE22F44
:10058A00E0535E0FD0C0E22FE33639F438D2E8895F
:10059A00F989A481AA9339D2C5C0E33729F42FD2A5
:1005AA003AD2ADD11E2F07C0E03749F428D233D250
:1005BA00B2D11E2F086002600F7730E037C0E436F0
:1005CA0011F0E93611F4046002C0E53731F4E4E5CC
:1005DA00F0E0EE83FF8315E00CC0E83511F4086003
:1005EA0003C0E83709F09EC0EEE5F0E0EE83FF8332
:1005FA0014E002FF15C003D2A889B9891496ED91B7
:10060A00FD91EA87FB87AB85AA2322F436D2EA87D3
:10061A00FB874DE2403011F01F5F01C00B7F06C01F
:10062A00EED1A889B989DFD1EA87FB8700FD10C01E
:10063A00151770F407FF08C002FF04C00B7F242FB0
:10064A00115001C020E301C020E2D2D15150F0CFB5
:10065A00312F01FF16C0303099F003FF06C0EE813A
:10066A00FF812591EE83FF8305C0AE81BF812D9165
:10067A00AE83BF83BDD1503009F051503150EBCF1A
:10068A0048C020E3EE81FF81FCD1E887F987EE813B
:10069A00FF813296EE83FF83E885F985AA85BB85BB
:1006AA00AE17BF0750F02F5FA885B985EA85FB858D
:1006BA00EA1BFB0BEA87FB87EFCF2A3328F003FFFD
:1006CA0002C0295F01C0295D04FD19C0213320F44D
:1006DA00A885B985119709F409C0531710F000FFCE
:1006EA0001C011C020E207FF0AC020E3006102FF37
:1006FA0006C00B7F4A9389D1503009F0515078D106
:10070A00503009F051503150A885B985129708F038
:10071A00B8CF00FF07C0503029F05150E0E2EA9309
:10072A0074D1F9CF10E0EDCEAC85BD85ED91FD9188
:10073A009DD164960895FF92F82E269790D1FE01D6
:10074A000024EF0DF01D46855785042E052A19F45D
:10075A00EFEFFFEF18C0DE01189667D14887598777
:10076A00E0E0EA87EB87DE011C9664D1EDE4F2E073
:10077A00FA93EA93DE011C96B9DE9F01A885B98532
:10078A00E0E0EC93F90172D12C96FF900895FF9264
:10079A00F82E26971A930A93DE01149646D1E0E0C2
:1007AA00EC83ED83EE83EF83DE01189643D1E3E415
:1007BA00F2E0FA93EA93DE01189698DE198108812D
:1007CA002896FF9008951A931A2FE5B3EF70AE2F6B
:1007DA00E12FE07FEA2BE5BB89E18A95F1F7AA9A36
:1007EA0089E18A95F1F7AA9889E18A95F1F785C096
:1007FA00AA93A881E8DFE881E295E883A881E3DF8C
:10080A0086EF8A95F1F7219608951A930A931A2F7B
:10081A000A81E12FF0E0E855FD4FE081E00FAE2FAD
:10082A00E7DF0093AC021093AD0219810881239689
:10083A000895A2E009D1ACE0DBDFA1E005D1E0E058
:10084A00E093AD02E093AC0208951A931A2F1A307E
:10085A0031F0E091AE02A091AC02AE1758F0E0E0A0
:10086A00EA93A091AD02AF5FA093AD02CEDF1A303A
:10087A0009F443C0E091AC02EF5FE093AC02A89A9E
:10088A00A12FB6DFA89839C0ECD09D01D9012F5FFE
:10089A003F4FEC911E2FE03019F0A12FD6DFF6CF93
:1008AA00E7D0249608951A931A2FE4B3E06FE4BBB5
:1008BA00A29AA09AA19AAA98A898A9981093AE0267
:1008CA00E12FE058E093AA02E12FE054E093AB0253
:1008DA00A4E1B0E003D1BCD0BBD0BAD0A0E273DFB0
:1008EA0081E791E00197F1F7A8E282DFA4E080DFD7
:1008FA00A5E87EDFA6E07CDF9CDF19910895BA9314
:10090A00AA93A991B991EE27FF276D91662311F059
:10091A003196FBCF0895BA93AA93AA27BB27E991E8
:10092A00F9910590002011F01196FBCFFD01089571
:10093A00EFE1EDBDE0E0ECBDE093A602E093A70293
:10094A000895E1E0F0E0E093A602F093A70208958B
:10095A00E0E0EA93A0E059DFE0E6F2E0FA93EA93F6
:10096A000895E5E0EA93A0E050DFE0E6F2E0FA93CA
:10097A00EA930895E0E0EA93A1E047DFE1E8F2E0D4
:10098A00FA93EA93089580E0D6DE2496A1E8B2E0CD
:10099A007BCFE5E0EA93A1E038DFE1E8F2E0FA9301
:1009AA00EA930895EAE0EA93A0E02FDFE1E8F2E0B3
:1009BA00FA93EA930895EAE0EA93A1E026DFE1E8F0
:1009CA00F2E0FA93EA930895EEE0EA93A1E01DDFDC
:1009DA00E1E8F2E0FA93EA930895ED91FD913196F8
:1009EA00FE93EE9308951496ED91FC911197089554
:1009FA002A93AD85BE85EF85F88909950895E8891A
:100A0A00F9893497E88BF98B0895AD85BE85EF8512
:100A1A00F88909950895A889B9891496ED91FD91E7
:100A2A00EE83FF83AE81BF8108950024AF0DB01D10
:100A3A008D0108950024AF0DB01DED91FD91FA933B
:100A4A00EA931A930A930895D3DEA3E0B0E046C06E
:100A5A00A0E3B9DE81E791E00197F1F708955A938F
:100A6A004A933A932A931A930A9308955D814C8183
:100A7A003B812A81198108810895F195E195F04019
:100A8A0008950590F491E02D0895119602D0FE2F55
:100A9A001197E199FECFFF93FFB7F894AEBBBFBBA6
:100AAA00E09AEDB3FFBFFF91089507D01196EF9337
:100ABA00EF2F03D0EF9111970895E19B02C0A895FB
:100ACA00FCCF9FB7F894AEBBBFBBE09A8DB3E817D3
:100ADA0019F0EDBBE29AE19A9FBF0895109639F09A
:100AEA00A89586E69EE00197F1F71197C9F7089550
:00000001FF
